{
  "_format": "hh-sol-artifact-1",
  "contractName": "SharedWallet",
  "sourceName": "contracts/SharedWalletContract.sol",
  "abi": [
    {
      "inputs": [],
      "stateMutability": "nonpayable",
      "type": "constructor"
    },
    {
      "inputs": [
        {
          "internalType": "address",
          "name": "",
          "type": "address"
        }
      ],
      "name": "customerBalance",
      "outputs": [
        {
          "internalType": "int256",
          "name": "",
          "type": "int256"
        }
      ],
      "stateMutability": "view",
      "type": "function"
    },
    {
      "inputs": [],
      "name": "depositMoney",
      "outputs": [],
      "stateMutability": "payable",
      "type": "function"
    },
    {
      "inputs": [],
      "name": "getCustomerBalance",
      "outputs": [
        {
          "internalType": "int256",
          "name": "",
          "type": "int256"
        }
      ],
      "stateMutability": "view",
      "type": "function"
    },
    {
      "inputs": [
        {
          "internalType": "string",
          "name": "_name",
          "type": "string"
        }
      ],
      "name": "setwalletName",
      "outputs": [],
      "stateMutability": "nonpayable",
      "type": "function"
    },
    {
      "inputs": [],
      "name": "totalBalance",
      "outputs": [
        {
          "internalType": "uint256",
          "name": "",
          "type": "uint256"
        }
      ],
      "stateMutability": "view",
      "type": "function"
    },
    {
      "inputs": [],
      "name": "walletName",
      "outputs": [
        {
          "internalType": "string",
          "name": "",
          "type": "string"
        }
      ],
      "stateMutability": "view",
      "type": "function"
    },
    {
      "inputs": [],
      "name": "walletOwner",
      "outputs": [
        {
          "internalType": "address",
          "name": "",
          "type": "address"
        }
      ],
      "stateMutability": "view",
      "type": "function"
    },
    {
      "inputs": [
        {
          "internalType": "address payable",
          "name": "_to",
          "type": "address"
        },
        {
          "internalType": "uint256",
          "name": "_total",
          "type": "uint256"
        }
      ],
      "name": "withDrawMoney",
      "outputs": [],
      "stateMutability": "payable",
      "type": "function"
    }
  ],
  "bytecode": "0x608060405234801561001057600080fd5b50336000806101000a81548173ffffffffffffffffffffffffffffffffffffffff021916908373ffffffffffffffffffffffffffffffffffffffff160217905550610d9a806100606000396000f3fe60806040526004361061007b5760003560e01c8063a853409a1161004e578063a853409a1461011b578063ad7a672f14610146578063b39d7b7c14610171578063cf8d8ca01461018d5761007b565b806304a69af91461008057806316c05aa2146100a95780631ae879e8146100b357806337ebe47b146100de575b600080fd5b34801561008c57600080fd5b506100a760048036038101906100a291906106da565b6101b8565b005b6100b1610260565b005b3480156100bf57600080fd5b506100c8610315565b6040516100d591906108b3565b60405180910390f35b3480156100ea57600080fd5b5061010560048036038101906101009190610675565b610339565b60405161011291906108ce565b60405180910390f35b34801561012757600080fd5b50610130610351565b60405161013d91906108ce565b60405180910390f35b34801561015257600080fd5b5061015b610398565b604051610168919061096b565b60405180910390f35b61018b6004803603810190610186919061069e565b61039e565b005b34801561019957600080fd5b506101a261049d565b6040516101af91906108e9565b60405180910390f35b60008054906101000a900473ffffffffffffffffffffffffffffffffffffffff1673ffffffffffffffffffffffffffffffffffffffff163373ffffffffffffffffffffffffffffffffffffffff1614610246576040517f08c379a000000000000000000000000000000000000000000000000000000000815260040161023d9061094b565b60405180910390fd5b806001908051906020019061025c92919061052b565b5050565b60003414156102a4576040517f08c379a000000000000000000000000000000000000000000000000000000000815260040161029b9061092b565b60405180910390fd5b34600360003373ffffffffffffffffffffffffffffffffffffffff1673ffffffffffffffffffffffffffffffffffffffff16815260200190815260200160002060008282546102f39190610a03565b92505081905550346002600082825461030c9190610a97565b92505081905550565b60008054906101000a900473ffffffffffffffffffffffffffffffffffffffff1681565b60036020528060005260406000206000915090505481565b6000600360003373ffffffffffffffffffffffffffffffffffffffff1673ffffffffffffffffffffffffffffffffffffffff16815260200190815260200160002054905090565b60025481565b6002548111156103e3576040517f08c379a00000000000000000000000000000000000000000000000000000000081526004016103da9061090b565b60405180910390fd5b80600360003373ffffffffffffffffffffffffffffffffffffffff1673ffffffffffffffffffffffffffffffffffffffff16815260200190815260200160002060008282546104329190610aed565b92505081905550806002600082825461044b9190610b81565b925050819055508173ffffffffffffffffffffffffffffffffffffffff166108fc829081150290604051600060405180830381858888f19350505050158015610498573d6000803e3d6000fd5b505050565b600180546104aa90610c4f565b80601f01602080910402602001604051908101604052809291908181526020018280546104d690610c4f565b80156105235780601f106104f857610100808354040283529160200191610523565b820191906000526020600020905b81548152906001019060200180831161050657829003601f168201915b505050505081565b82805461053790610c4f565b90600052602060002090601f01602090048101928261055957600085556105a0565b82601f1061057257805160ff19168380011785556105a0565b828001600101855582156105a0579182015b8281111561059f578251825591602001919060010190610584565b5b5090506105ad91906105b1565b5090565b5b808211156105ca5760008160009055506001016105b2565b5090565b60006105e16105dc846109b7565b610986565b9050828152602081018484840111156105f957600080fd5b610604848285610c0d565b509392505050565b60008135905061061b81610d1f565b92915050565b60008135905061063081610d36565b92915050565b600082601f83011261064757600080fd5b81356106578482602086016105ce565b91505092915050565b60008135905061066f81610d4d565b92915050565b60006020828403121561068757600080fd5b60006106958482850161060c565b91505092915050565b600080604083850312156106b157600080fd5b60006106bf85828601610621565b92505060206106d085828601610660565b9150509250929050565b6000602082840312156106ec57600080fd5b600082013567ffffffffffffffff81111561070657600080fd5b61071284828501610636565b91505092915050565b61072481610bb5565b82525050565b61073381610bd9565b82525050565b6000610744826109e7565b61074e81856109f2565b935061075e818560208601610c1c565b61076781610d0e565b840191505092915050565b600061077f6025836109f2565b91507f596f75206861766520696e7375666669656e742066756e647320746f2077697460008301527f68647261770000000000000000000000000000000000000000000000000000006020830152604082019050919050565b60006107e56029836109f2565b91507f596f75206e65656420746f206465706f73697420736f6d6520616d6f756e742060008301527f6f66206d6f6e65792100000000000000000000000000000000000000000000006020830152604082019050919050565b600061084b603a836109f2565b91507f596f75206d75737420626520746865206f776e657220746f207365742074686560008301527f206e616d65206f6620746865207368617265642077616c6c65740000000000006020830152604082019050919050565b6108ad81610c03565b82525050565b60006020820190506108c8600083018461071b565b92915050565b60006020820190506108e3600083018461072a565b92915050565b600060208201905081810360008301526109038184610739565b905092915050565b6000602082019050818103600083015261092481610772565b9050919050565b60006020820190508181036000830152610944816107d8565b9050919050565b600060208201905081810360008301526109648161083e565b9050919050565b600060208201905061098060008301846108a4565b92915050565b6000604051905081810181811067ffffffffffffffff821117156109ad576109ac610cdf565b5b8060405250919050565b600067ffffffffffffffff8211156109d2576109d1610cdf565b5b601f19601f8301169050602081019050919050565b600081519050919050565b600082825260208201905092915050565b6000610a0e82610bd9565b9150610a1983610bd9565b9250817f7fffffffffffffffffffffffffffffffffffffffffffffffffffffffffffffff03831360008312151615610a5457610a53610c81565b5b817f8000000000000000000000000000000000000000000000000000000000000000038312600083121615610a8c57610a8b610c81565b5b828201905092915050565b6000610aa282610c03565b9150610aad83610c03565b9250827fffffffffffffffffffffffffffffffffffffffffffffffffffffffffffffffff03821115610ae257610ae1610c81565b5b828201905092915050565b6000610af882610bd9565b9150610b0383610bd9565b9250827f800000000000000000000000000000000000000000000000000000000000000001821260008412151615610b3e57610b3d610c81565b5b827f7fffffffffffffffffffffffffffffffffffffffffffffffffffffffffffffff018213600084121615610b7657610b75610c81565b5b828203905092915050565b6000610b8c82610c03565b9150610b9783610c03565b925082821015610baa57610ba9610c81565b5b828203905092915050565b6000610bc082610be3565b9050919050565b6000610bd282610be3565b9050919050565b6000819050919050565b600073ffffffffffffffffffffffffffffffffffffffff82169050919050565b6000819050919050565b82818337600083830152505050565b60005b83811015610c3a578082015181840152602081019050610c1f565b83811115610c49576000848401525b50505050565b60006002820490506001821680610c6757607f821691505b60208210811415610c7b57610c7a610cb0565b5b50919050565b7f4e487b7100000000000000000000000000000000000000000000000000000000600052601160045260246000fd5b7f4e487b7100000000000000000000000000000000000000000000000000000000600052602260045260246000fd5b7f4e487b7100000000000000000000000000000000000000000000000000000000600052604160045260246000fd5b6000601f19601f8301169050919050565b610d2881610bb5565b8114610d3357600080fd5b50565b610d3f81610bc7565b8114610d4a57600080fd5b50565b610d5681610c03565b8114610d6157600080fd5b5056fea2646970667358221220be59bab2493f8315c87b4d079df7768a2815cae860c388e9f0a53b7c6540541664736f6c63430008000033",
  "linkReferences": {},
  "deployedLinkReferences": {}
}